:100000000C9446000C945D000C945D000C945D0013
:100010000C945D000C945D000C945D000C945D00EC
:100020000C945D000C945D000C945D000C945D00DC
:100030000C945D000C945D000C945D000C945D00CC
:100040000C945D000C945D000C945D000C945D00BC
:100050000C945D000C945D000C945D000C945D00AC
:100060000C945D000C945D000C945D000C945D009C
:100070000C945D000C945D000C945D000C945D008C
:100080000C945D000C945D000C945D0011241FBE67
:10009000CFEFD0E4DEBFCDBF11E0A0E0B1E0E2EBF6
:1000A000F2E000E00BBF02C007900D92A031B10753
:1000B000D9F70E9499000C9457010C940000CF933B
:1000C000DF9300D01F92CDB7DEB789837B836A832D
:1000D00089818A3031F48A819B81BC018DE00E9444
:1000E0005F0080EC90E0FC018081882F90E08072BE
:1000F0009927892BB1F386EC90E02981FC012083BC
:1001000080E090E00F900F900F90DF91CF910895D5
:10011000CF93DF93CDB7DEB78AE790E02AE730E0F0
:10012000F9012081206EFC0120830000DF91CF9136
:100130000895CF93DF9300D000D0CDB7DEB784E22F
:1001400090E02FEFFC01208385E290E0FC0110821B
:100150000E9488001B821A82198280E991E099230B
:100160000CF4079695958795959587959595879520
:100170008C8388E790E0FC01808191819B838A8356
:100180008C818695282F30E08A819B81281739073A
:1001900010F0198286C08C81282F30E08A819B81E3
:1001A0002817390718F081E089837BC08C81882F5C
:1001B00090E0880F991F9C018A819B81281739073D
:1001C00018F083E089836DC08C81282F30E0C9014D
:1001D000880F991F820F931F9C018A819B8128178A
:1001E000390718F087E089835CC08C81882F90E004
:1001F000880F991F880F991F9C018A819B8128175E
:10020000390718F08FE089834CC08C81282F30E0AB
:10021000C901880F991F880F991F820F931F9C0196
:100220008A819B812817390718F08FE1898339C0AB
:100230008C81282F30E0C901880F991F820F931FEE
:10024000880F991F9C018A819B812817390718F014
:100250008FE3898326C08C81282F30E0C901880F65
:10026000991F880F991F880F991F821B930B9C0160
:100270008A819B812817390718F08FE7898311C07D
:100280008C81882F90E0880F991F880F991F880F05
:10029000991F9C018A819B812817390710F08FEFE5
:1002A000898385E290E02981FC01208362CFF89464
:0202B000FFCF7E
:1002B20000000002000000005F000000000090014A
:00000001FF
